:02000000122CC0
:100006008312031320089300831614180C2800008B
:0A001600072883121308F000080009
:0C002000000000000000000000000800CC
:10002C00243083120313FC00B530FD00FD0B1C289B
:0A003C00FC0B1C2800000000080067
:0E004600533083120313FD00FD0B2728080022
:1000540083120313E21B3028881331288817621B8C
:100064003528081336280817E21A3A2888123B283C
:100074008816621A3F280812402808164018442897
:10008400071445280710871410208710E2194C28FC
:1000940088134D2888176219512808135228081705
:1000A400E218562888125728881662185B28081206
:1000B4005C28081640186028071461280710871464
:1000C40010208710401C6828162069282320080067
:1000D40083120313E71DA0286308E800E80CE81363
:1000E400E80CE813E80CE8130530F1006408F000AC
:1000F400710803198128F00D7010FF3E7B287008E9
:10010400E80407110230A00003206208A0000320C5
:100114006808A00003200530F1006308F0007108AE
:1001240003199828F00D7010FF3E92287008E8001B
:100134007008A000032007151020E6280530F00001
:100144006508E80070080319AB28E80CE813FF3EC3
:10015400A5286608F000F00D7010F00D7010F00D79
:1001640070107008E80407110230A0000320620830
:10017400A00003206808A00003206508F000F00D2B
:100184007010F00D7010F00D7010E030F005700874
:10019400E80008307004F1007108E80003306505D8
:1001A400F0007108F0047008E8007008A000032053
:1001B4006408E8006408A00003206308E8006308FA
:0A01C400A00003200715102008001A
:1001CE008312031307110230A0000320FF30A0009A
:1001DE0003205B08A0000320071510205C080319FC
:1001EE000C2907110330A0000320FE30A0000320CD
:1001FE00A00103207008DD0007151020E0305D051A
:0C020E00F10071085B06031DF8280800D1
:0E021A00831203133D088A003C08820008008E
:10022800282983120313E1013F290430E1003F2903
:100238000830E1003F291030E1003F291430E10087
:100248003F291830E1003F29831203135B08003A65
:10025800031915295B08013A031919295B08023AA1
:1002680003191C295B08033A03191F295B08043A80
:100278000319222925296108E2005C08E3005D08CA
:10028800E4005E08E5005F08E6006008E7006A2011
:0202980008005C
:10029A008312031340105B08E2002A20401408006E
:1002AA00103083120313FD00FD0B592900000800CA
:1002BA0083120313DB03DC03DD03DE03DF030630F3
:1002CA00F0005B08E100700803196F29E10D611065
:1002DA00FF3E69295C08E10407110230A0000320EF
:1002EA002A30A00003206108A0000320071510206F
:1002FA005D08E100E10D6110E10D6110E10D611091
:10030A005F08E10460198A296117601C8D29E117C9
:10031A0007110230A00003202930A0000320610841
:10032A00A0000320071510205E08E100E01C9E29AA
:10033A00611707110230A00003202830A000032013
:0C034A006108A000032007151020080027
:10035600243083120313FD00FD0BAF2900000800B3
:10036600831203135B08003A031DC7292030E200FD
:100376005C08E3005D08E4005E08E5005F08E6004F
:100386006008E7006A20D4292430E2005C08E30014
:100396005D08E4005E08E5005F08E6006008E70027
:0403A6006A200800C1
:1003AA008312031307110330A00003203030A0008A
:1003BA000320A00103207008D80007151020D819BF
:1003CA00E829D8010E2A07110330A0000320403083
:1003DA00A0000320A00103207008D80007151020F0
:1003EA00D819FA291030D8000E2A07110330A000B4
:1003FA0003205030A0000320A00103207008D80079
:10040A0007151020D8190C2A2030D8000E2AF0011E
:10041A007E2A3030D80707110230A000032058087E
:10042A00A000032003305705F0007008DA007008B6
:10043A00A000032007151020D719262AF730DA0062
:10044A00282AFF30DA00580AE2005108E30052086D
:10045A00E4005308E5005408E6005A08E7006A2059
:10046A005608DA00571B3A2A5A1707110230A00019
:10047A00032005305807A00003205A08A0000320D3
:10048A0007151020102007110230A00003200630A3
:10049A005807A0000320D9015608590203185D2AFB
:1004AA005908550784000008A0000320D90A512AD8
:1004BA0007151020102007116E2A8130A000032092
:1004CA007A2A8230A00003207A2A8330A0000320EF
:1004DA007A2A5808303A0319622A5808403A031906
:1004EA00662A5808503A03196A2A07151020FF305D
:0404FA00F000080006
:1004FE0083120313F801F9011030FC00710DF80D91
:10050E00F90D7408F8027508031C750FF90203182B
:10051E00972A7408F80775080318750FF907031062
:0A052E00F00DF10DFC0B852A08000A
:10053800831203139F01C0309F043009F000700834
:1005480083169F051F179F1783125108F000F00D9F
:100558007010F00D7010F00D701070089F041F14CB
:10056800AB211F151F1DBA2A0000B62A1F101E082E
:10057800F100F00183161E08F0040030F1040800B1
:100588008316031307130711831207170715071399
:100598005521071755218030DB00FF30DC00E720AC
:1005A8005108DB005208DC005308DD005408DE0067
:1005B8005508DF005608E0005D2160305605D70079
:1005C80010305605F1007108103A031DEC2A571532
:1005D80007110230A00003206030A0000320570854
:1005E800A000032007151020102007110230A000DA
:1005F80003207030A00003205708A000032007152F
:100608001020DB01DC01DD01DE01DF01F730E00055
:10061800B3210130DB00DC01DD01DE01DF01F73051
:10062800E000B32160305605F0009F307004F100FF
:100638002C2BF730D800F730D900352BFF30D800F5
:10064800FF30D900352BFF30D800F730D900352BD3
:100658007108DF3A03191D2B7108BF3A0319222BC1
:10066800272BDB01DC01DD01DE01DF015808E0009A
:1006780014210130DB00DC01DD01DE01DF01580857
:10068800E00014210230D7005708053C031C572B03
:100698005708DB00DC01DD01DE01DF015908E0005D
:1006A8001421D70A482BDB01FF30DC00E7200800C3
:1006B800831603138710071008128812081388136B
:1006C800831287100710881308138812081216203F
:1006D8001620162088160816871410208710162052
:1006E80087141020871016208714102087101620D2
:1006F80008128714102087101620871410208710DE
:100708008812881787141020871016208813081657
:1007180087141020871008128714102087101620BD
:1007280087141020871008168714102087101620A9
:1007380008128714102087108817081788160816BB
:0C074800871410208710162040140800B1
:100754000D218A110A128000840ABC0A0319BD0AF9
:08076400F003031DAA2B08009D
:10076C00C82B803083120313D100DB2BC030D10097
:10077C00DB2B9430D100DB2BD430D100DB2B803041
:10078C00D100DB2B831203135108013A0319B72B49
:10079C005108023A0319BC2B5108033A0319BF2B19
:1007AC005108043A0319C22BC52B5203F00051080F
:1007BC00F0077008D1007008E2002A204010D40124
:1007CC0054085307840000080319F42B54085307EA
:1007DC0084000008DB004D21D40AE62B40140800ED
:1007EC00033083120313C4000030C5002030C60050
:1007FC000030FF30C100FF30C200FF30C300FF30BB
:10080C0083168712871107168312940140308316C2
:08081C009400831294160800F9
:100824000E258030831603139F00FF308500F623C6
:100834005C230130E2002A200C30E2002A2001303F
:10084400D1000130D2002130D300B623F430BE00F1
:10085400D130BF000130D1000330D2000330D300C7
:100864000330D4000130D500D130D600C42280300A
:10087400DB00FF30DC00E720DB01FF30DC00FF3071
:10088400DD00DE00DF00F730E000B3210130DB00E3
:10089400FF30DC00FF30DD00DE00DF00F730E00079
:1008A400B3210430DB000230DC000030DD00003016
:1008B400DE000030DF00F730E0001421DB01FF3000
:1008C400DC00E720D1019C2270088312CF0071085C
:1008D400D0007108F200F3017208C700FF30700500
:1008E400C8000230D1000130D2003130D300B62329
:1008F400C630E2002A20E830F4000330F5004F0847
:10090400F0005008F1007F2230307007DB004D21E9
:100914006430F4000030F5004F08F0005008F10096
:100924007F220A30F4000030F5007F227808F000BE
:100934007908F10030307007DB004D210A30F400F3
:100944000030F5004F08F0005008F1007F220A3013
:10095400F4000030F5007F227808F0007908F100F7
:1009640030307007DB004D210A30F4000030F50010
:100974004F08F0005008F1007F227808F000790851
:10098400F10030307007DB004D210130D1000B3015
:10099400D2003630D300B6234F30D1002F30D200EE
:1009A4000030D3000030D4004730D5000230D600E8
:1009B4003E08D700D5210330FB008A30FC005530B7
:1009C400FD00FD0BE32CFC0BE32CFB0BE32C0000E4
:0609D4000000642CEC2C75
:100A1C00213084001B3083120313F000F230BC0031
:080A2C000430BD00AA230800FC
:1009E4004E346F3464346534203441342034533409
:0E09F40065346E34643469346E346734003414
:020A02000F34AF
:0A0A04005434583444343A340034BA
:0C0A0E0020342034203420342034003404
:02400E000A2F77
:00000001FF
